:1000000045C0000060C000005EC000005CC0000091
:100010005AC0000058C0000056C0000054C0000084
:1000200052C0000050C000004EC000004CC0000094
:100030004AC000009CC3000046C0000044C000004D
:1000400042C0000040C000003EC0000005C10000EA
:100050003AC0000038C0000036C0000034C00000C4
:1000600032C0000030C000002EC000002CC00000D4
:100070002AC0000028C0000026C0000024C00000E4
:1000800022C0000020C000001EC0000011241FBEBE
:10009000CFEFD0E4DEBFCDBF11E0A0E0B1E0EEE4F1
:1000A000FEE000E00BBF02C007900D92A831B1073F
:1000B000D9F727E0A8E1B1E001C01D92AC35B20745
:1000C000E1F7F5D1C2C69CCFCF93DF93EC01A2D468
:1000D0002091180130911901CE01820F931F8C3DA0
:1000E00045E0940758F42817390758F4E901C65E2B
:1000F000DE4F909319018093180105C0C0E0D0E055
:1001000002C0C0E0D0E04DD5CE01DF91CF9108957F
:100110000895FC010396928381832FEF3FEF348390
:100120002383968385839087878310820895FC01BB
:10013000118610860895CF93DF93FC01DB012181A6
:100140003281E9018A819B8113969C938E93129749
:100150008181928115969C938E9314978A819B81BD
:10016000EC017D836C83E9017B836A837283618305
:100170001996FC93EE93189780818F5F8083DF91AF
:10018000CF910895CF93DF93EB01488159814F3F81
:100190002FEF520731F4DC011796ED91FC9118977F
:1001A00017C0FC013396DC0115962D913C911697F2
:1001B000D9012D913C914217530750F00280F381F1
:1001C000E02DA281B3812D913C9142175307B0F7E6
:1001D000A281B381BB83AA831596DC93CE93149737
:1001E000FD83EC83D383C28399878887FC012081B8
:1001F0002F5F2083DF91CF910895FC01A281B3810D
:100200008481958115969C938E931497A481B581D2
:100210008281938113969C938E931297A085B185CA
:1002200011968D919C9112978E179F0731F48481BE
:10023000958112969C938E931197118610868C91BE
:1002400081508C93089580E484B98FEB85B98CB587
:10025000806C8CBD789408951F920F920FB60F9208
:1002600011248F938EB5809358078F910F900FBEF6
:100270000F901F90189580915A07882319F08130AC
:1002800051F01CC01092570710925B071092FC06A9
:100290001092FB0618C0809158078093FB0690913E
:1002A000FC068917A1F08093FC06982F92959F7009
:1002B000909357078F7080935B0709C0882319F0CC
:1002C000813049F404C081E080935A07089581E0A9
:1002D00080935A07089510925A07089580915907FC
:1002E000813081F020F0823009F48DC091C01092ED
:1002F000FA061092F9061092F8061092F70610927C
:10030000F60686C0809157079091F906981380935E
:10031000F9068091F906813071F48091F7068F30EB
:1003200021F480EF8093F70603C08FE08093F706F7
:100330001092F60638C0823071F48091F7068A3A3E
:1003400021F485E58093F70603C08AEA8093F706D7
:100350001092F60628C08330B9F48091F606811118
:1003600004C080E88093F7060BC08091F7068130C7
:1003700021F480E88093F70603C086958093F70602
:1003800081E08093F6060FC0843069F48091F7060F
:100390008F3F21F48FE08093F70603C08FEF8093A7
:1003A000F7061092F60680915B079091F806981375
:1003B0008093F8068091F806813021F48FE48093D1
:1003C000FA061DC0823021F487E28093FA0617C036
:1003D000833021F489E18093FA0611C0843021F43E
:1003E00089E08093FA060BC0853021F483E0809386
:1003F000FA0605C0863019F481E08093FA068091F0
:10040000F70688B905C08091FA0681508093FA06F4
:1004100080915907813041F018F0823049F01CC0BA
:1004200081E080935907089582E0809359070895E9
:100430008091FA06882361F09091F80680915B071D
:10044000981306C09091F90680915707981731F0DC
:1004500081E0809359070895109259070895F3DEBB
:1004600010925A073BDF07DF89E190E01BD4FACFF7
:10047000AF92BF92CF92DF92EF92FF920F93A12C97
:10048000B12CC12CD12CE12CF12C082F20E030E034
:1004900045E550E062E071E08FE292E09FD10F917C
:1004A000FF90EF90DF90CF90BF90AF9008958FEFC7
:1004B00087B918B881E0DCDF84D280E090E008954D
:1004C00031E1FC013083319722E220833197A3E3AD
:1004D000A083319760833197708331971082319771
:1004E00060E8608331971082319762E060833197D2
:1004F00063E06083319764E06083319765E06083F7
:10050000319766E06083319767E06083319768E0F8
:100510006083319769E06083319760E16083319750
:100520003083319732E13083319733E13083319733
:1005300034E13083319735E13083319736E13083D0
:10054000319737E13083319738E13083319739E1A2
:100550003083319730E23083319731E23083319705
:100560002083319723E22083319740833197508352
:10057000319726E22083319727E22083319728E2C2
:100580002083319729E22083319720E3208331971C
:1005900021E3208386970895109289008CE7809349
:1005A00088008BE080938100EFE6F0E0808182603C
:1005B0008083A0915507B0915607CD91CDBFDD91B5
:1005C000DEBFFF91EF91DF91CF91BF91AF919F91EE
:1005D0008F917F916F915F914F913F912F911F91DB
:1005E0000F91FF90EF90DF90CF90BF90AF909F90D2
:1005F0008F907F906F905F904F903F902F901F90C3
:100600000F900FBE0F90089581E008950F920FB6DE
:10061000F8940F921F9211242F923F924F925F9263
:100620006F927F928F929F92AF92BF92CF92DF9202
:10063000EF92FF920F931F932F933F934F935F93EC
:100640006F937F938F939F93AF93BF93CF93DF93DA
:10065000EF93FF93A0915507B09156070DB60D92F9
:100660000EB60D9270D3A0915507B0915607CD915B
:10067000CDBFDD91DEBFFF91EF91DF91CF91BF91B3
:10068000AF919F918F917F916F915F914F913F912A
:100690002F911F910F91FF90EF90DF90CF90BF901F
:1006A000AF909F908F907F906F905F904F903F9012
:1006B0002F901F900F900FBE0F9008950F920FB6BE
:1006C000F8940F921F9211242F923F924F925F92B3
:1006D0006F927F928F929F92AF92BF92CF92DF9252
:1006E000EF92FF920F931F932F933F934F935F933C
:1006F0006F937F938F939F93AF93BF93CF93DF932A
:10070000EF93FF93A0915507B09156070DB60D9248
:100710000EB60D9285D117D3A0915507B09156070B
:10072000CD91CDBFDD91DEBFFF91EF91DF91CF91F4
:10073000BF91AF919F918F917F916F915F914F91F9
:100740003F912F911F910F91FF90EF90DF90CF90ED
:10075000BF90AF909F908F907F906F905F904F90E1
:100760003F902F901F900F900FBE0F900895A6DF1F
:100770001895CF93DF93EC01E0915507F091560760
:10078000938382838091050790910607C817D90744
:1007900060F4609155077091560780911B07909106
:1007A0001C076E5F7F4FEEDC16C06091550770919D
:1007B000560780911D0790911E076E5F7F4FE2DC08
:1007C0008091000190910101C817D90720F4D093BE
:1007D0000101C0930001DF91CF9108954F925F9284
:1007E0006F927F928F929F92AF92BF92CF92DF9241
:1007F000EF92FF920F931F93CF93DF935C014B0116
:100800003A01290181E290E05FDCEC01892B09F4D7
:10081000C6C0C114D10409F0BEC0C30155DC988F15
:100820008F8B009719F4CE0173DCB9C0A30165EA80
:1008300070E0F5D29301215031098F89988D3C01E8
:10084000620E731E48E050E0B401CE014996EED22C
:1008500018A2102F043008F013E01E8B6E0182E006
:10086000C80ED11CC60163DCCE010C9660DCD987B2
:10087000C88784E090E0811B91099D878C87DB8B82
:10088000CA8BA201B501C3011BDE99838883E114E1
:10089000F10419F0F701D183C0830FB6F8940F92D9
:1008A000809107078F5F809307078091550790918C
:1008B0005607892B69F5D0935607C0935507809149
:1008C00007078130A1F581E397E023DC8AE397E015
:1008D00020DC83E497E01DDC8CE497E01ADC88E2FE
:1008E00097E017DC8FE197E014DC82E197E011DC00
:1008F00089E097E00EDC88E297E090931E078093F2
:100900001D078FE197E090931C0780931B070FC092
:100910008091020781110BC0E0915507F0915607B5
:100920008689081720F0D0935607C09355078E8903
:1009300090910407981710F4809304079091FD0696
:100940009F5F9093FD0690910307981710F4809392
:10095000030790E09C01220F331F220F331F220F49
:10096000331F820F931FB6018F5C984FE4DB0F900B
:100970000FBE80910207882351F0E0915507F09156
:1009800056078689801728F441DE81E009C081E09E
:1009900007C081E005C0D88ECF8AC60147CF8FEF50
:1009A000DF91CF911F910F91FF90EF90DF90CF904B
:1009B000BF90AF909F908F907F906F905F904F907F
:1009C0000895AF92BF92CF92DF92EF92FF920F9372
:1009D000A12CB12CC12CD12CE12CF12C00E020E079
:1009E00030E045E550E063E171E08DE696E0F6DE4B
:1009F000813041F4F8948093020710920607109218
:100A00000507CADD0F91FF90EF90DF90CF90BF9068
:100A1000AF900895809101078F5F8093010708953B
:100A20000F931F93CF93DF93809101078111AFC084
:100A30008091050790910607019690930607809391
:100A400005078091050790910607892B99F58091FC
:100A50001D0790911E0720911B0730911C073093B2
:100A60001E0720931D0790931C0780931B078091FE
:100A7000FE068F5F8093FE06E0911D07F0911E0732
:100A80008081811107C08FEF9FEF909301018093C8
:100A9000000110C0E0911D07F0911E070580F6814E
:100AA000E02D0680F781E02D8281938190930101F2
:100AB0008093000120910507309106078091000185
:100AC000909101012817390708F466C0E0911D07CD
:100AD000F0911E078081882399F0E0911D07F09125
:100AE0001E070580F681E02DC681D7818A819B8112
:100AF000209105073091060728173907F8F419C027
:100B00008FEF9FEF909301018093000145C0E0912A
:100B10001D07F0911E070580F681E02DC681D78163
:100B20008A819B8120910507309106072817390794
:100B300028F490930101809300012EC08E010E5F76
:100B40001F4FC8015ADB8C899D89892B19F0CE0172
:100B50000C9653DB2E8980910307821710F42093A3
:100B6000030730E0C901880F991F880F991F880F6C
:100B7000991F820F931FB8018F5C984FDCDAE091C8
:100B80001D07F0911E0780818111C1CFB9CF8091DF
:100B900000078F5F80930007DF91CF911F910F9126
:100BA0000895CF92DF92EF92FF920F931F93CF930E
:100BB000DF930FB6F8940F928091010781508093D4
:100BC00001078091010781115FC0809107078111A2
:100BD0002FC05DC0D7011596ED91FC911697C68187
:100BE000D781CE010C9609DB8E010E5F1F4FC80125
:100BF00004DB2E8980910307821710F420930307EA
:100C000030E0C901880F991F880F991F880F991F1D
:100C1000820F931FB8018F5C984F8DDAE0915507D2
:100C2000F09156079E898689981758F0DC2C09C0E8
:100C3000D12C0F2EF2E1EF2EF7E0FF2EF02DCC2479
:100C4000C394F70180818111C5CF8091000788236B
:100C500079F080910007882391F0E2DE809100070F
:100C6000815080930007809100078111F6CF07C063
:100C7000F1E0DF1621F08091FF06813039F4109207
:100C8000FF06C4DC81E003C080E001C080E00F907B
:100C90000FBEDF91CF911F910F91FF90EF90DF90EA
:100CA000CF900895CF93DF93EC01892B91F0B2DEC2
:100CB0008091050790910607C80FD91F80915507AD
:100CC00090915607029699DACE0153DD6ADF8111C1
:100CD00001C09CDCDF91CF9108950F2EF9E0EF2E3B
:100CE000F7E0FF2EF02DC1E3D7E0809108078823BD
:100CF00029F190DED7011C9154DF1123F9F00FB6D2
:100D0000F8940F92D7011596ED91FC9116970681F4
:100D10001781C801029671DA80910707815080938C
:100D20000707809108078150809308070F900FBE36
:100D3000F8018789908DECD9C801EAD98881823081
:100D4000A0F264DCD2CF80910107811113C08091A1
:100D5000030790E0FC01EE0FFF1FEE0FFF1FEE0FE9
:100D6000FF1F8E0F9F1FFC01EF5CF84F80818823CF
:100D700029F01BC081E08093FF060895809103074E
:100D80008150809303078091030790E0FC01EE0FF0
:100D9000FF1FEE0FFF1FEE0FFF1F8E0F9F1FFC01A7
:100DA000EF5CF84F8081882349F38091030790E03E
:100DB0009C01220F331F220F331F220F331F280FD6
:100DC000391FD901AF5CB84F1196ED91FC91129784
:100DD0000280F381E02D1296FC93EE9311972C5C28
:100DE000384FE217F30729F422813381FD01328362
:100DF0002183FC01EE0FFF1FEE0FFF1FEE0FFF1F01
:100E00008E0F9F1FFC01EF5CF84F0180F281E02DF7
:100E10008681978190935607809355070895DC014A
:100E200001C06D9341505040E0F70895FB01DC0193
:100E30004150504048F001900D920020C9F701C088
:0E0E40001D9241505040E0F70895F894FFCF06
:100E4E00FFFF4D617374657253797374656D5461F0
:080E5E00736B0049444C450090
:00000001FF
