:1000000045C0000060C000005EC000005CC0000091
:100010005AC0000058C0000056C0000054C0000084
:1000200052C0000050C000004EC000004CC0000094
:100030004AC000000EC1000046C0000044C00000DD
:1000400042C0000040C000003EC0000090C0000060
:100050003AC0000038C0000036C0000034C00000C4
:1000600032C0000030C000002EC000002CC00000D4
:100070002AC0000028C0000026C0000024C00000E4
:1000800022C0000020C000001EC0000011241FBEBE
:10009000CFEFD0E4DEBFCDBF11E0A0E0B1E0E4EBF4
:1000A000F4E000E00BBF02C007900D92A230B10750
:1000B000D9F721E0A2E0B1E001C01D92A433B2075C
:1000C000E1F764D0F5C19CCFCF93DF93FC01DB0156
:1000D00021813281E9018A819B8113969C938E93C1
:1000E00012978181928115969C938E9314978A81A1
:1000F0009B81EC017D836C83E9017B836A8372833E
:1001000061831996FC93EE93189780818F5F8083AB
:10011000DF91CF910895FC01A281B3818481958103
:1001200015969C938E931497A481B58182819381B7
:1001300013969C938E931297A085B18511968D91FD
:100140009C9112978E179F0731F4848195811296A6
:100150009C938E931197118610868C9181508C936D
:10016000089580E484B980EC8CBD789408951F9242
:100170000F920FB60F9211248F938EB58093330197
:100180008F910F900FBE0F901F9018958FEF87B92A
:1001900018B8E7DF80EF88B98091330188B9FCCFC8
:1001A0000F920FB6F8940F921F9211242F923F9244
:1001B0004F925F926F927F928F929F92AF92BF9277
:1001C000CF92DF92EF92FF920F931F932F933F9363
:1001D0004F935F936F937F938F939F93AF93BF934F
:1001E000CF93DF93EF93FF93A0913101B091320150
:1001F0000DB60D920EB60D922ED0EED0A09131011B
:10020000B0913201CD91CDBFDD91DEBFFF91EF9175
:10021000DF91CF91BF91AF919F918F917F916F911E
:100220005F914F913F912F911F910F91FF90EF9010
:10023000DF90CF90BF90AF909F908F907F906F9006
:100240005F904F903F902F901F900F900FBE0F9098
:100250000895A6DF18950F931F93CF93DF93809196
:1002600005018111AFC080910701909108010196AD
:1002700090930801809307018091070190910801F4
:10028000892B99F580910B0190910C012091090126
:1002900030910A0130930C0120930B0190930A01D5
:1002A00080930901809102018F5F80930201E091A8
:1002B0000B01F0910C018081811107C08FEF9FEF3E
:1002C000909301018093000110C0E0910B01F09127
:1002D0000C010580F681E02D0680F781E02D8281FA
:1002E0009381909301018093000120910701309147
:1002F000080180910001909101012817390708F445
:1003000066C0E0910B01F0910C018081882399F087
:10031000E0910B01F0910C010580F681E02DC68182
:10032000D7818A819B81209107013091080128178C
:100330003907F8F419C08FEF9FEF90930101809374
:10034000000145C0E0910B01F0910C010580F681A0
:10035000E02DC681D7818A819B8120910701309150
:1003600008012817390728F49093010180930001B0
:100370002EC08E010E5F1F4FC801CDDE8C899D8976
:10038000892B19F0CE010C96C6DE2E8980910601CC
:10039000821710F42093060130E0C901880F991FDD
:1003A000880F991F880F991F820F931FB801835FD1
:1003B0009E4F8ADEE0910B01F0910C01808181114A
:1003C000C1CFB9CF809104018F5F80930401DF9189
:1003D000CF911F910F91089580910501811113C054
:1003E0008091060190E0FC01EE0FFF1FEE0FFF1F52
:1003F000EE0FFF1F8E0F9F1FFC01E35FFE4F8081FA
:10040000882329F01BC081E0809303010895809127
:1004100006018150809306018091060190E0FC0165
:10042000EE0FFF1FEE0FFF1FEE0FFF1F8E0F9F1F20
:10043000FC01E35FFE4F8081882349F38091060130
:1004400090E09C01220F331F220F331F220F331F16
:10045000280F391FD901A35FBE4F1196ED91FC9172
:1004600012970280F381E02D1296FC93EE93119780
:10047000205F3E4FE217F30729F422813381FD010B
:1004800032832183FC01EE0FFF1FEE0FFF1FEE0FE3
:10049000FF1F8E0F9F1FFC01E35FFE4F0180F28163
:1004A000E02D8681978190933201809331010895E8
:0404B000F894FFCFEE
:0204B400FFFF48
:00000001FF
