:1000000045C0000060C000005EC000005CC0000091
:100010005AC0000058C0000056C0000054C0000084
:1000200052C0000050C000004EC000004CC0000094
:100030004AC000000FC2000046C0000044C00000DB
:1000400042C0000040C000003EC000003FC10000B0
:100050003AC0000038C0000036C0000034C00000C4
:1000600032C0000030C000002EC000002CC00000D4
:100070002AC0000028C0000026C0000024C00000E4
:1000800022C0000020C000001EC0000011241FBEBE
:10009000CFEFD0E4DEBFCDBF11E0A0E0B1E0E6EBF2
:1000A000F6E000E00BBF02C007900D92AE30B10742
:1000B000D9F721E0AEE0B1E001C01D92A034B20753
:1000C000E1F713D1F6C29CCFCF93DF93FC01DB01A4
:1000D00021813281E9018A819B8113969C938E93C1
:1000E00012978181928115969C938E9314978A81A1
:1000F0009B81EC017D836C83E9017B836A8372833E
:1001000061831996FC93EE93189780818F5F8083AB
:10011000DF91CF910895FC01A281B3818481958103
:1001200015969C938E931497A481B58182819381B7
:1001300013969C938E931297A085B18511968D91FD
:100140009C9112978E179F0731F4848195811296A6
:100150009C938E931197118610868C9181508C936D
:100160000895181619065CF0089500002150310911
:10017000E1F74F5F5F4F4817590729F4089540E0B2
:1001800050E077E063E0272F362FEFCF5E9888B9F5
:100190005F9A00005F9882E090E0E3CF089581E0ED
:1001A000F5CF089584E690E0DCDF88E3EFDF86E0BA
:1001B000EDDF8FE0EBDF81E0E9DF8AE090E0D1CF97
:1001C00008955E9A88B95F9A00005F9881E090E098
:1001D000C8CF0895813118F48158D8CF089581553A
:1001E000D5CF08950F931F93CF93DF93182FEB0173
:1001F000D6DF8881882351F001E0010F812FEADFEB
:100200008991DFDF102F88818111F6CFDF91CF91A7
:100210001F910F9108958FEE82B90000009B29C0B5
:10022000019B29C0029B29C0039B29C08FED82B985
:100230000000009B26C0019B26C0029B26C0039B9A
:1002400026C08FEB82B90000009B23C0019B23C016
:10025000029B23C0039B23C08FE782B90000009B51
:1002600020C0019B20C0029B20C0039B20C080E0D7
:10027000089581E3089584E3089587E308958AE269
:10028000089582E3089585E3089588E3089580E35F
:10029000089583E3089586E3089589E3089583E24A
:1002A000089581E4089582E4089583E4089584E440
:1002B000089580EB84B981E58CBD789408958EBD56
:1002C00085B10DB407FEFDCF85B108951F920F9241
:1002D0000FB60F9211248F938EB580933F018F91AB
:1002E0000F900FBE0F901F901895CF93DF9300D003
:1002F00000D01F92CDB7DEB780EF81B98FE082B911
:100300008FEF87B918B88AB91BB84CDF62E071E08B
:1003100081E068DF88EE93E024DF41DF88E48983B1
:1003200089E68A838AE38B8380E28C831D82C1DF26
:1003300072DF182F8C81811781F1113319F481E05C
:10034000BEDF25C0123319F482E0B9DF20C01333B9
:1003500019F484E0B4DF1BC0143319F488E0AFDF74
:1003600016C0153319F480E1AADF11C0163319F451
:1003700080E2A5DF0CC0173319F480E4A0DF07C0CA
:10038000183319F480E89BDF02C080E098DF1C83FB
:10039000BE016F5F7F4F81E025DF88EE93E0E1DEF5
:1003A000C7CF0F920FB6F8940F921F9211242F927D
:1003B0003F924F925F926F927F928F929F92AF92F5
:1003C000BF92CF92DF92EF92FF920F931F932F93E2
:1003D0003F934F935F936F937F938F939F93AF93CD
:1003E000BF93CF93DF93EF93FF93A0913D01B09123
:1003F0003E010DB60D920EB60D922ED0EED0A0910C
:100400003D01B0913E01CD91CDBFDD91DEBFFF91A9
:10041000EF91DF91CF91BF91AF919F918F917F919C
:100420006F915F914F913F912F911F910F91FF908D
:10043000EF90DF90CF90BF90AF909F908F907F9084
:100440006F905F904F903F902F901F900F900FBE36
:100450000F900895A6DF18950F931F93CF93DF9306
:10046000809111018111AFC080911301909114010D
:100470000196909314018093130180911301909140
:100480001401892B99F58091170190911801209101
:1004900015013091160130931801209317019093A4
:1004A00016018093150180910E018F5F80930E01DC
:1004B000E0911701F09118018081811107C08FEF41
:1004C0009FEF909301018093000110C0E09117010C
:1004D000F09118010580F681E02D0680F781E02D6E
:1004E00082819381909301018093000120911301F7
:1004F0003091140180910001909101012817390772
:1005000008F466C0E0911701F091180180818823FA
:1005100099F0E0911701F09118010580F681E02D26
:10052000C681D7818A819B8120911301309114016A
:1005300028173907F8F419C08FEF9FEF9093010146
:100540008093000145C0E0911701F09118010580EA
:10055000F681E02DC681D7818A819B81209113018C
:10056000309114012817390728F4909301018093E2
:1005700000012EC08E010E5F1F4FC801CCDD8C899B
:100580009D89892B19F0CE010C96C5DD2E898091AD
:100590001201821710F42093120130E0C901880F74
:1005A000991F880F991F880F991F820F931FB801F9
:1005B000875E9E4F89DDE0911701F09118018081DF
:1005C0008111C1CFB9CF809110018F5F809310014D
:1005D000DF91CF911F910F910895809111018111A9
:1005E00013C08091120190E0FC01EE0FFF1FEE0F8F
:1005F000FF1FEE0FFF1F8E0F9F1FFC01E75EFE4FD8
:100600008081882329F01BC081E080930F01089529
:10061000809112018150809312018091120190E02B
:10062000FC01EE0FFF1FEE0FFF1FEE0FFF1F8E0FDF
:100630009F1FFC01E75EFE4F8081882349F3809174
:10064000120190E09C01220F331F220F331F220F53
:10065000331F280F391FD901A75EBE4F1196ED91A8
:10066000FC9112970280F381E02D1296FC93EE9399
:100670001197245E3E4FE217F30729F4228133815C
:10068000FD0132832183FC01EE0FFF1FEE0FFF1FE0
:10069000EE0FFF1F8E0F9F1FFC01E75EFE4F0180D4
:1006A000F281E02D8681978190933E0180933D01F8
:0606B0000895F894FFCF4D
:0E06B600FFFF48656C6C6F20576F726C64001C
:00000001FF
