:1000000045C0000060C000005EC000005CC0000091
:100010005AC0000058C0000056C0000054C0000084
:1000200052C0000050C000004EC000004CC0000094
:100030004AC0000040C4000046C0000044C00000A8
:1000400042C0000040C000003EC000003CC00000B4
:100050003AC0000038C0000036C0000034C00000C4
:1000600032C0000030C000002EC000002CC00000D4
:100070002AC0000028C0000026C0000024C00000E4
:1000800022C0000020C000001EC0000011241FBEBE
:10009000CFEFD0E4DEBFCDBF11E0A0E0B1E0E6E9F4
:1000A000FFE000E00BBF02C007900D92AA33B1073A
:1000B000D9F727E0AAE3B1E001C01D92A138B20749
:1000C000E1F79CD266C79CCFCF93DF93EC0146D576
:1000D00020913A0130913B01CE01820F931F8C3D5C
:1000E00045E0940758F42817390758F4E901C45C2F
:1000F000DE4F90933B0180933A0105C0C0E0D0E011
:1001000002C0C0E0D0E0F1D5CE01DF91CF910895DB
:100110000895FC010396928381832FEF3FEF348390
:100120002383968385839087878310820895FC01BB
:10013000118610860895CF93DF93FC01DB012181A6
:100140003281E9018A819B8113969C938E93129749
:100150008181928115969C938E9314978A819B81BD
:10016000EC017D836C83E9017B836A837283618305
:100170001996FC93EE93189780818F5F8083DF91AF
:10018000CF910895CF93DF93EB01488159814F3F81
:100190002FEF520731F4DC011796ED91FC9118977F
:1001A00017C0FC013396DC0115962D913C911697F2
:1001B000D9012D913C914217530750F00280F381F1
:1001C000E02DA281B3812D913C9142175307B0F7E6
:1001D000A281B381BB83AA831596DC93CE93149737
:1001E000FD83EC83D383C28399878887FC012081B8
:1001F0002F5F2083DF91CF910895FC01A281B3810D
:100200008481958115969C938E931497A481B581D2
:100210008281938113969C938E931297A085B185CA
:1002200011968D919C9112978E179F0731F48481BE
:10023000958112969C938E931197118610868C91BE
:1002400081508C930895181619065CF008950000EB
:1002500021503109E1F74F5F5F4F4817590729F4E3
:10026000089540E050E077E063E0272F362FEFCF8E
:100270002E988BB92F9A00002F9882E090E0E3CF60
:10028000089581E0F5CF089584E690E0DCDF88E30F
:10029000EFDF86E0EDDF8FE0EBDF81E0E9DF8AE092
:1002A00090E0D1CF08952E9A8BB92F9A00002F9805
:1002B00081E090E0C8CF0895813118F48158D8CFFB
:1002C00008958155D5CF08950F931F93CF93DF9352
:1002D000182FEB01D6DF8881882351F001E0010F50
:1002E000812FEADF8991DFDF102F88818111F6CF1E
:1002F000DF91CF911F910F9108958FEE8BB9000080
:10030000489B29C0499B29C04A9B29C04B9B29C0B7
:100310008FED8BB90000489B26C0499B26C04A9BA5
:1003200026C04B9B26C08FEB8BB90000489B23C097
:10033000499B23C04A9B23C04B9B23C08FE78BB9AB
:100340000000489B20C0499B20C04A9B20C04B9B7B
:1003500020C080E0089581E3089584E3089587E351
:1003600008958AE2089582E3089585E3089588E375
:10037000089580E3089583E3089586E3089589E36B
:10038000089583E2089581E4089582E4089583E462
:10039000089584E4089580EB84B981E58CBD789458
:1003A00008958EBD85B10DB407FEFDCF85B10895CA
:1003B00080EF81B98FE082B910927D070895809116
:1003C0007D07882319F0813081F05FC081E0809340
:1003D0007B078093800780937F0781E180937E076E
:1003E00010921F0710921E0750C087DF80931F07CF
:1003F00090911E07891709F448C080931E07813425
:1004000021F481E080937B0735C0823421F482E0BF
:1004100080937B072FC0833421F483E080937B0794
:1004200029C0843421F484E080937B0723C0813386
:1004300021F481E0809380071DC0823321F482E0A3
:100440008093800717C0833321F483E08093800773
:1004500011C0843321F484E0809380070BC085337E
:1004600021F485E08093800705C0863319F486E087
:100470008093800780917B0720E1829FC001112437
:1004800090918007892B80937E0780917D07882338
:1004900019F0813039F004C081E080937D07089520
:1004A00010927D0708958FEF87B918B88AB91BB8E5
:1004B000EBDE10927C07089580917C07882319F069
:1004C0008130B9F03FC0DDDEE2E0F1E0F0931D07DE
:1004D000E0931C0781E080931B0780931A078093A9
:1004E000190781E387838687858BBF0181E0ECDE76
:1004F00029C080917B0790911B0798130CC0209115
:100500001A0790918007291306C02091190790912E
:100510007F07291721F180931B07209180072093E3
:100520001A0790917F0790931907E0911C07F091AB
:100530001D07805D8783205D2687905D958BBF01B9
:1005400081E0C2DE80917C07882319F0813029F494
:10055000089581E080937C07089510927C070895A8
:100560001ADF10927A07089580917A07882319F08C
:10057000813021F00CC01092180709C080917E07CD
:1005800090911807981781F0809318070ADF8091DF
:100590007A07882319F0813029F4089581E0809347
:1005A0007A07089510927A07089502DF7CDFD8DF7A
:1005B00006DF82DFD9DF84E690E018D4F9CFAF926E
:1005C000BF92CF92DF92EF92FF920F93A12CB12CAA
:1005D000C12CD12CE12CF12C082F20E030E045E596
:1005E00050E063E271E085ED92E09CD10F91FF90C5
:1005F000EF90DF90CF90BF90AF90089581E0DFDF64
:1006000084D280E090E0089531E1FC01308331979D
:1006100022E220833197A3E3A0833197608331974F
:10062000708331971082319760E860833197108230
:10063000319762E06083319763E06083319764E0D3
:100640006083319765E06083319766E0608331971E
:1006500067E06083319768E06083319769E0608389
:10066000319760E1608331973083319732E1308395
:10067000319733E13083319734E13083319735E17D
:100680003083319736E13083319737E130833197CA
:1006900038E13083319739E13083319730E230836C
:1006A000319731E2308331972083319723E22083E1
:1006B0003197408331975083319726E220833197D9
:1006C00027E22083319728E22083319729E2208393
:1006D000319720E32083319721E320838697089583
:1006E000109289008CE7809388008BE080938100D2
:1006F000EFE6F0E0808182608083A0917807B0917E
:100700007907CD91CDBFDD91DEBFFF91EF91DF91F4
:10071000CF91BF91AF919F918F917F916F915F9199
:100720004F913F912F911F910F91FF90EF90DF908C
:10073000CF90BF90AF909F908F907F906F905F9081
:100740004F903F902F901F900F900FBE0F900895E5
:1007500081E008950F920FB6F8940F921F92112422
:100760002F923F924F925F926F927F928F929F92C1
:10077000AF92BF92CF92DF92EF92FF920F931F93AF
:100780002F933F934F935F936F937F938F939F9399
:10079000AF93BF93CF93DF93EF93FF93A09178072D
:1007A000B09179070DB60D920EB60D9270D3A0914F
:1007B0007807B0917907CD91CDBFDD91DEBFFF9174
:1007C000EF91DF91CF91BF91AF919F918F917F91E9
:1007D0006F915F914F913F912F911F910F91FF90DA
:1007E000EF90DF90CF90BF90AF909F908F907F90D1
:1007F0006F905F904F903F902F901F900F900FBE83
:100800000F9008950F920FB6F8940F921F92112433
:100810002F923F924F925F926F927F928F929F9210
:10082000AF92BF92CF92DF92EF92FF920F931F93FE
:100830002F933F934F935F936F937F938F939F93E8
:10084000AF93BF93CF93DF93EF93FF93A09178077C
:10085000B09179070DB60D920EB60D9285D117D3D2
:10086000A0917807B0917907CD91CDBFDD91DEBF22
:10087000FF91EF91DF91CF91BF91AF919F918F91B8
:100880007F916F915F914F913F912F911F910F91A8
:10089000FF90EF90DF90CF90BF90AF909F908F90A0
:1008A0007F906F905F904F903F902F901F900F9090
:1008B0000FBE0F900895A6DF1895CF93DF93EC013C
:1008C000E0917807F09179079383828380912807DC
:1008D00090912907C817D90760F460917807709143
:1008E000790780913E0790913F076E5F7F4F4ADC0A
:1008F00016C06091780770917907809140079091B8
:1009000041076E5F7F4F3EDC8091000190910101B5
:10091000C817D90720F4D0930101C0930001DF91DB
:10092000CF9108954F925F926F927F928F929F9294
:10093000AF92BF92CF92DF92EF92FF920F931F93ED
:10094000CF93DF935C014B013A01290181E290E0F2
:10095000BBDBEC01892B09F4C6C0C114D10409F03A
:10096000BEC0C301B1DB988F8F8B009719F4CE0105
:10097000CFDBB9C0A30165EA70E0F5D29301215045
:1009800031098F89988D3C01620E731E48E050E05A
:10099000B401CE014996EED218A2102F043008F00F
:1009A00013E01E8B6E0182E0C80ED11CC601BFDBB6
:1009B000CE010C96BCDBD987C88784E090E0811B10
:1009C00091099D878C87DB8BCA8BA201B501C3017E
:1009D0001BDE99838883E114F10419F0F701D183B8
:1009E000C0830FB6F8940F9280912A078F5F80938F
:1009F0002A078091780790917907892B69F5D09320
:100A00007907C093780780912A078130A1F584E5A2
:100A100097E07FDB8DE597E07CDB86E697E079DB8E
:100A20008FE697E076DB8BE497E073DB82E497E078
:100A300070DB85E397E06DDB8CE297E06ADB8BE4AB
:100A400097E0909341078093400782E497E090936A
:100A50003F0780933E070FC08091250781110BC08F
:100A6000E0917807F09179078689081720F0D093F4
:100A70007907C09378078E8990912707981710F40B
:100A800080932707909120079F5F90932007909174
:100A90002607981710F48093260790E09C01220FF8
:100AA000331F220F331F220F331F820F931FB601F4
:100AB0008C5A984F40DB0F900FBE809125078823FA
:100AC00051F0E0917807F09179078689801728F432
:100AD00041DE81E009C081E007C081E005C0D88E19
:100AE000CF8AC60147CF8FEFDF91CF911F910F9132
:100AF000FF90EF90DF90CF90BF90AF909F908F903E
:100B00007F906F905F904F900895AF92BF92CF9279
:100B1000DF92EF92FF920F93A12CB12CC12CD12C1C
:100B2000E12CF12C00E020E030E045E550E064E30A
:100B300071E081E197E0F6DE813041F4F894809332
:100B400025071092290710922807CADD0F91FF9000
:100B5000EF90DF90CF90BF90AF90089580912407E1
:100B60008F5F8093240708950F931F93CF93DF9394
:100B7000809124078111AFC08091280790912907A7
:100B800001969093290780932807809128079091D8
:100B90002907892B99F58091400790914107209171
:100BA0003E0730913F0730934107209340079093D1
:100BB0003F0780933E07809121078F5F8093210735
:100BC000E0914007F09141078081811107C08FEFCC
:100BD0009FEF909301018093000110C0E0914007C6
:100BE000F09141070580F681E02D0680F781E02D28
:100BF00082819381909301018093000120912807C5
:100C0000309129078091000190910101281739073F
:100C100008F466C0E0914007F09141078081882385
:100C200099F0E0914007F09141070580F681E02DB1
:100C3000C681D7818A819B8120912807309129071D
:100C400028173907F8F419C08FEF9FEF909301012F
:100C50008093000145C0E0914007F0914107058075
:100C6000F681E02DC681D7818A819B81209128075A
:100C7000309129072817390728F4909301018093B0
:100C800000012EC08E010E5F1F4FC801B6DA8C899D
:100C90009D89892B19F0CE010C96AFDA2E898091AF
:100CA0002607821710F42093260730E0C901880F29
:100CB000991F880F991F880F991F820F931FB801E2
:100CC0008C5A984F38DAE0914007F09141078081C3
:100CD0008111C1CFB9CF809123078F5F8093230704
:100CE000DF91CF911F910F910895CF92DF92EF92F4
:100CF000FF920F931F93CF93DF930FB6F8940F9249
:100D000080912407815080932407809124078111CA
:100D10005FC080912A0781112FC05DC0D701159651
:100D2000ED91FC911697C681D781CE010C9665DABC
:100D30008E010E5F1F4FC80160DA2E898091260751
:100D4000821710F42093260730E0C901880F991FFD
:100D5000880F991F880F991F820F931FB8018C5A13
:100D6000984FE9D9E0917807F09179079E898689B3
:100D7000981758F0DC2C09C0D12C0F2EF5E3EF2E7C
:100D8000F7E0FF2EF02DCC24C394F7018081811170
:100D9000C5CF80912307882379F08091230788238A
:100DA00091F0E2DE809123078150809323078091A8
:100DB00023078111F6CF07C0F1E0DF1621F0809103
:100DC0002207813039F410922207C4DC81E003C08D
:100DD00080E001C080E00F900FBEDF91CF911F91A6
:100DE0000F91FF90EF90DF90CF900895CF93DF9316
:100DF000EC01892B91F0B2DE8091280790912907B0
:100E0000C80FD91F80917807909179070296F5D97C
:100E1000CE0153DD6ADF811101C09CDCDF91CF91EF
:100E200008950F2EFCE2EF2EF7E0FF2EF02DC4E523
:100E3000D7E080912B07882329F190DED7011C9100
:100E400054DF1123F9F00FB6F8940F92D7011596DD
:100E5000ED91FC91169706811781C8010296CDD9B4
:100E600080912A07815080932A0780912B07815017
:100E700080932B070F900FBEF8018789908D48D97A
:100E8000C80146D988818230A0F264DCD2CF80913B
:100E90002407811113C08091260790E0FC01EE0F1A
:100EA000FF1FEE0FFF1FEE0FFF1F8E0F9F1FFC0196
:100EB000EC5AF84F8081882329F01BC081E0809391
:100EC00022070895809126078150809326078091FC
:100ED000260790E0FC01EE0FFF1FEE0FFF1FEE0F45
:100EE000FF1F8E0F9F1FFC01EC5AF84F8081882353
:100EF00049F38091260790E09C01220F331F220FB7
:100F0000331F220F331F280F391FD901AC5AB84F96
:100F10001196ED91FC9112970280F381E02D1296CB
:100F2000FC93EE931197295A384FE217F30729F4EF
:100F300022813381FD0132832183FC01EE0FFF1FEB
:100F4000EE0FFF1FEE0FFF1F8E0F9F1FFC01EC5ACD
:100F5000F84F0180F281E02D868197819093790787
:100F6000809378070895DC0101C06D934150504093
:100F7000E0F70895FB01DC014150504048F001903A
:100F80000D920020C9F701C01D9241505040E0F77A
:060F90000895F894FFCF64
:100F9600FFFF205074726E3A205F205370643A202F
:100FA6005F202075433A205F20202020202020202B
:100FB6002020004D617374657253797374656D54A6
:0A0FC60061736B0049444C450000C4
:00000001FF
